:020000040000FA
:100000000C9462000C948A000C948A000C948A0070
:100010000C948A000C948A000C948A000C948A0038
:100020000C948A000C948A000C948A000C948A0028
:100030000C948A000C948A000C948A000C948A0018
:100040000C94EC010C948A000C945C020C94360223
:100050000C948A000C948A000C948A000C948A00F8
:100060000C948A000C948A000000000025002800EF
:100070002B0000000000240027002A0000000000E0
:1000800023002600290004040404040404040202DA
:100090000202020203030303030301020408102007
:1000A0004080010204081020010204081020000012
:1000B0000008000201000003040700000000000027
:1000C00000008E0211241FBECFEFD8E0DEBFCDBFEF
:1000D00011E0A0E0B1E0E2EFF8E002C005900D927F
:1000E000A231B107D9F721E0A2E1B1E001C01D9230
:1000F000AC3BB207E1F710E0C2E6D0E004C02197C4
:10010000FE010E946204C136D107C9F70E94C102F4
:100110000C9477040C9400003FB7F8948091170179
:1001200090911801A0911901B0911A0126B5A89BD0
:1001300005C02F3F19F00196A11DB11D3FBFBA2F79
:10014000A92F982F8827BC01CD01620F711D811D39
:10015000911D42E0660F771F881F991F4A95D1F7BE
:100160000895AF92BF92CF92DF92EF92FF920F93DA
:100170001F93CF93DF936C017B018B01040F151F3D
:10018000EB015E01AE18BF08C017D10759F06991A5
:10019000D601ED91FC910190F081E02DC601099509
:1001A000892B79F7C501DF91CF911F910F91FF90B6
:1001B000EF90DF90CF90BF90AF900895FC01538DEA
:1001C000448D252F30E0842F90E0821B930B541731
:1001D00010F0CF96089501970895FC01918D828DBE
:1001E000981761F0A28DAE0FBF2FB11D5D968C9157
:1001F000928D9F5F9F73928F90E008958FEF9FEF96
:100200000895FC01918D828D981731F0828DE80F51
:10021000F11D858D90E008958FEF9FEF0895FC010B
:10022000918D228D892F90E0805C9F4F821B9109D8
:100230008F73992708958BE191E00E940F0121E0CF
:10024000892B09F420E0822F089580E090E0892B2B
:1002500029F00E941B0181110C9400000895FC01FB
:10026000A48DA80FB92FB11DA35ABF4F2C91848D17
:1002700090E001968F739927848FA689B7892C9374
:10028000A089B1898C91837080648C93938D848DC7
:10029000981306C00288F389E02D80818F7D8083CA
:1002A0000895EF92FF920F931F93CF93DF93EC018A
:1002B00081E0888F9B8D8C8D98131AC0E889F9890D
:1002C000808185FF15C09FB7F894EE89FF89608310
:1002D000E889F98980818370806480839FBF81E091
:1002E00090E0DF91CF911F910F91FF90EF900895D3
:1002F000F62E0B8D10E00F5F1F4F0F731127E02EAE
:100300008C8D8E110CC00FB607FCFACFE889F989E5
:10031000808185FFF5CFCE010E942F01F1CFEB8DBB
:10032000EC0FFD2FF11DE35AFF4FF0829FB7F894B9
:100330000B8FEA89FB8980818062CFCF682F8BE1A8
:1003400091E00C945101EF92FF920F931F93CF9382
:10035000DF93F82EE92E682F8BE191E00E94510186
:10036000C8EBD1E08A819B818F1991099B838A8395
:100370000E2D10E06E2D8BE191E00E9451018A81DB
:100380009B81801B910B9B838A83DF91CF911F916F
:100390000F91FF90EF900895CF93DF93EC01888D3C
:1003A0008823B9F0AA89BB89E889F9898C9185FDF0
:1003B00003C0808186FD0DC00FB607FCF7CF8C917E
:1003C00085FFF2CF808185FFEDCFCE010E942F0106
:1003D000E9CFDF91CF9108951F920F920FB60F9240
:1003E00011242F933F938F939F93AF93BF9380914B
:1003F000130190911401A0911501B0911601309153
:10040000120123E0230F2D3758F50196A11DB11DD0
:10041000209312018093130190931401A09315016E
:10042000B09316018091170190911801A0911901C4
:10043000B0911A010196A11DB11D809317019093EF
:100440001801A0931901B0931A01BF91AF919F9128
:100450008F913F912F910F900FBE0F901F90189585
:1004600026E8230F0296A11DB11DD2CF1F920F9235
:100470000FB60F9211242F933F934F935F936F9377
:100480007F938F939F93AF93BF93EF93FF938BE1F2
:1004900091E00E942F01FF91EF91BF91AF919F9149
:1004A0008F917F916F915F914F913F912F910F901D
:1004B0000FBE0F901F9018951F920F920FB60F92BC
:1004C00011242F938F939F93EF93FF93E0912B0130
:1004D000F0912C018081E0913101F091320182FD97
:1004E0001BC09081809134018F5F8F732091350103
:1004F000821741F0E0913401F0E0E55EFE4F958F08
:1005000080933401FF91EF919F918F912F910F90E4
:100510000FBE0F901F9018958081F4CFEBE1F1E0B2
:100520001382128288EE93E0A0E0B0E0848395838A
:10053000A683B78384E091E09183808385EC90E08B
:100540009587848784EC90E09787868780EC90E09D
:10055000918B808B81EC90E0938B828B82EC90E08E
:10056000958B848B86EC90E0978B868B118E128E08
:10057000138E148E88E090E09093B9018093B801B7
:100580000895789484B5826084BD84B5816084BD0B
:1005900085B5826085BD85B5816085BD80916E0021
:1005A000816080936E001092810080918100826052
:1005B000809381008091810081608093810080918F
:1005C00080008160809380008091B100846080937E
:1005D000B1008091B00081608093B00080917A007A
:1005E000846080937A0080917A00826080937A00A0
:1005F00080917A00816080937A0080917A0080688F
:1006000080937A001092C1000CE910E0F801249167
:10061000E8E8F0E084918823C1F090E0880F991F0A
:10062000FC01EE58FF4FA591B491FC01E859FF4F32
:10063000C591D4919FB7F8943C91822F80958323E4
:100640008C938881282B28839FBFE0912B01F09108
:100650002C0182E08083E0912701F0912801108233
:10066000E0912901F0912A018FEC808310923301EF
:10067000E0912F01F091300186E08083E0912D011F
:10068000F0912E01808180618083E0912D01F091B5
:100690002E01808188608083E0912D01F0912E01F0
:1006A000808180688083E0912D01F0912E0180810E
:1006B0008F7D80832FEB222E33243A943AE0432E11
:1006C000512C612C712CC0E0D0E08FB7F894C09011
:1006D0001301D0901401E0901501F09016018FBF26
:1006E0008091B8019091B9019101281B390B309389
:1006F000BB012093BA010E949E0180E490E00E9419
:100700009E01F0E4F0937C0080917A0080648093F5
:100710007A0080917A0086FDFCCFA0917800B0919C
:10072000790028EE33E00E945B042FEF33E040E0D5
:1007300050E00E943904C90188519C4F0E94A301D6
:10074000E0EBF0E09491F8018491E8E8F0E0249186
:10075000211156C080ED97E00E94A3018091BA015B
:100760009091BB0199270E949E019091BB01892F16
:10077000990F990B0E949E012FB7F8948091130155
:1007800090911401A0911501B09116012FBF8C1901
:100790009D09AE09BF098A309105A105B10528F56B
:1007A00073016201C81AD90AEA0AFB0A0E948C0086
:1007B0004B015C010E948C00681979098A099B0928
:1007C000683E734081059105A8F3F1E0CF1AD10886
:1007D000E108F10828EE820E23E0921EA11CB11C54
:1007E000C114D104E104F10429F7209709F46DCF75
:1007F0000E941B01882309F468CF0E94000065CF86
:10080000992339F09330F1F098F4913009F1923056
:1008100019F1E22FF0E0EE0FFF1FE458FF4FA59112
:10082000B4919C91892309F495CF88EE93E094CFFD
:100830009730A9F09830C9F0943059F79091800022
:100840009F7D03C0909180009F7790938000E1CFBF
:1008500094B59F7794BDDDCF94B59F7DFBCF9091EC
:10086000B0009F779093B000D4CF9091B0009F7D5F
:10087000F9CFA1E21A2EAA1BBB1BFD010DC0AA1FB6
:10088000BB1FEE1FFF1FA217B307E407F50720F0F9
:10089000A21BB30BE40BF50B661F771F881F991F74
:1008A0001A9469F760957095809590959B01AC01BD
:1008B000BD01CF0108950E946804B7FF0895821B0F
:1008C000930B0895EE0FFF1F0590F491E02D09940E
:1008D000A29FB001B39FC001A39F700D811D112481
:1008E000911DB29F700D811D1124911D0895F894E2
:1008F000FFCF000000005101B100DE00CC010F016C
:04090000ED00010104
:107E0000112484B714BE81FFF0D085E080938100F7
:107E100082E08093C00088E18093C10086E0809377
:107E2000C20080E18093C4008EE0C9D0259A86E02C
:107E300020E33CEF91E0309385002093840096BBD3
:107E4000B09BFECF1D9AA8958150A9F7CC24DD24C4
:107E500088248394B5E0AB2EA1E19A2EF3E0BF2EE7
:107E6000A2D0813461F49FD0082FAFD0023811F036
:107E7000013811F484E001C083E08DD089C08234E0
:107E800011F484E103C0853419F485E0A6D080C0E4
:107E9000853579F488D0E82EFF2485D0082F10E0AE
:107EA000102F00270E291F29000F111F8ED06801E7
:107EB0006FC0863521F484E090D080E0DECF843638
:107EC00009F040C070D06FD0082F6DD080E0C81688
:107ED00080E7D80618F4F601B7BEE895C0E0D1E017
:107EE00062D089930C17E1F7F0E0CF16F0E7DF06D8
:107EF00018F0F601B7BEE89568D007B600FCFDCFD4
:107F0000A601A0E0B1E02C9130E011968C91119780
:107F100090E0982F8827822B932B1296FA010C0160
:107F200087BEE89511244E5F5F4FF1E0A038BF0790
:107F300051F7F601A7BEE89507B600FCFDCF97BE46
:107F4000E89526C08437B1F42ED02DD0F82E2BD052
:107F50003CD0F601EF2C8F010F5F1F4F84911BD097
:107F6000EA94F801C1F70894C11CD11CFA94CF0C13
:107F7000D11C0EC0853739F428D08EE10CD085E9AC
:107F80000AD08FE07ACF813511F488E018D01DD067
:107F900080E101D065CF982F8091C00085FFFCCF94
:107FA0009093C60008958091C00087FFFCCF809118
:107FB000C00084FD01C0A8958091C6000895E0E648
:107FC000F0E098E1908380830895EDDF803219F02E
:107FD00088E0F5DFFFCF84E1DECF1F93182FE3DFCA
:107FE0001150E9F7F2DF1F91089580E0E8DFEE27F6
:047FF000FF270994CA
:027FFE00040479
:00000001FF
